:040000000128FC2BAC
:10067C005F2345237108F3007008F2000800210085
:10068C009C019B019D149D18492B1C08F1001B0813
:10069C00F000080021001908873970389900FC30E7
:1006AC00990522008C01043021008C0023008C0160
:1006BC00080021009F0124008C0121009517FC30BB
:1006CC009E051E088F3920389E009E171D08833901
:1006DC000C389D001D149D100330F1009730F00074
:1006EC00F00B762BF10B762B003208001430210026
:1006FC008C00103023008C000330F5009730F40090
:10070C00F40B862BF50B862B00323E237308FA0074
:10071C007208F900043021008C0023008C01033096
:10072C00F5009730F400F40B992BF50B992B003254
:10073C007A08803AF40080307402031DA72BB03085
:10074C007902031CAC2B20000C16080020000C12A4
:10075C000800502320008C160C166630F8007730F9
:10076C00F7002430F600F60BB92BF70BB92BF80B6E
:10077C00B92B00006630F8007730F7002430F60013
:10078C00F60BC62BF70BC62BF80BC62B00006630EE
:10079C00F8007730F7002430F600F60BD32BF70B6C
:1007AC00D32BF80BD32B00007C237A08803AF6006D
:1007BC0080307602031DE42BB0307902031CF82B39
:1007CC0020008C120630F8001330F700B130F60020
:1007DC00F60BEE2BF70BEE2BF80BEE2B003220006A
:1007EC008C16B32B20000C1DF82BB22BF901FA013F
:0407FC002000AF2BFF
:020000040001F9
:04000E00E4FFFFFF0D
:00000001FF
